{
  "address": "0x8a5508a606B4508409A207eb109fE191c7c91012",
  "abi": [
    {
      "inputs": [],
      "stateMutability": "nonpayable",
      "type": "constructor"
    },
    {
      "anonymous": false,
      "inputs": [
        {
          "indexed": true,
          "internalType": "bytes32",
          "name": "role",
          "type": "bytes32"
        },
        {
          "indexed": true,
          "internalType": "bytes32",
          "name": "previousAdminRole",
          "type": "bytes32"
        },
        {
          "indexed": true,
          "internalType": "bytes32",
          "name": "newAdminRole",
          "type": "bytes32"
        }
      ],
      "name": "RoleAdminChanged",
      "type": "event"
    },
    {
      "anonymous": false,
      "inputs": [
        {
          "indexed": true,
          "internalType": "bytes32",
          "name": "role",
          "type": "bytes32"
        },
        {
          "indexed": true,
          "internalType": "address",
          "name": "account",
          "type": "address"
        },
        {
          "indexed": true,
          "internalType": "address",
          "name": "sender",
          "type": "address"
        }
      ],
      "name": "RoleGranted",
      "type": "event"
    },
    {
      "anonymous": false,
      "inputs": [
        {
          "indexed": true,
          "internalType": "bytes32",
          "name": "role",
          "type": "bytes32"
        },
        {
          "indexed": true,
          "internalType": "address",
          "name": "account",
          "type": "address"
        },
        {
          "indexed": true,
          "internalType": "address",
          "name": "sender",
          "type": "address"
        }
      ],
      "name": "RoleRevoked",
      "type": "event"
    },
    {
      "inputs": [],
      "name": "DEFAULT_ADMIN_ROLE",
      "outputs": [
        {
          "internalType": "bytes32",
          "name": "",
          "type": "bytes32"
        }
      ],
      "stateMutability": "view",
      "type": "function"
    },
    {
      "inputs": [
        {
          "internalType": "bytes32",
          "name": "role",
          "type": "bytes32"
        }
      ],
      "name": "getRoleAdmin",
      "outputs": [
        {
          "internalType": "bytes32",
          "name": "",
          "type": "bytes32"
        }
      ],
      "stateMutability": "view",
      "type": "function"
    },
    {
      "inputs": [
        {
          "internalType": "bytes32",
          "name": "role",
          "type": "bytes32"
        },
        {
          "internalType": "address",
          "name": "account",
          "type": "address"
        }
      ],
      "name": "grantRole",
      "outputs": [],
      "stateMutability": "nonpayable",
      "type": "function"
    },
    {
      "inputs": [
        {
          "internalType": "bytes32",
          "name": "role",
          "type": "bytes32"
        },
        {
          "internalType": "address",
          "name": "account",
          "type": "address"
        }
      ],
      "name": "hasRole",
      "outputs": [
        {
          "internalType": "bool",
          "name": "",
          "type": "bool"
        }
      ],
      "stateMutability": "view",
      "type": "function"
    },
    {
      "inputs": [
        {
          "internalType": "bytes32",
          "name": "role",
          "type": "bytes32"
        },
        {
          "internalType": "address",
          "name": "account",
          "type": "address"
        }
      ],
      "name": "renounceRole",
      "outputs": [],
      "stateMutability": "nonpayable",
      "type": "function"
    },
    {
      "inputs": [
        {
          "internalType": "bytes32",
          "name": "role",
          "type": "bytes32"
        },
        {
          "internalType": "address",
          "name": "account",
          "type": "address"
        }
      ],
      "name": "revokeRole",
      "outputs": [],
      "stateMutability": "nonpayable",
      "type": "function"
    },
    {
      "inputs": [
        {
          "internalType": "bytes4",
          "name": "interfaceId",
          "type": "bytes4"
        }
      ],
      "name": "supportsInterface",
      "outputs": [
        {
          "internalType": "bool",
          "name": "",
          "type": "bool"
        }
      ],
      "stateMutability": "view",
      "type": "function"
    }
  ],
  "transactionHash": "0x3655eb657ff491e579b2bd2456bfa90e5917b2247b8e1be1ede3100541580aaf",
  "args": [],
  "numDeployments": 1,
  "solcInputHash": "dae2c028d77a4462f7e4b91191b2ca19",
  "bytecode": "0x608060405234801561001057600080fd5b5061001c60003361004b565b6100467ffc7ecb5ee0a45e138101b775cdcead1108c55beb6520007218d40ee59c38cfdc3361004b565b6100f7565b6100558282610059565b5050565b6000828152602081815260408083206001600160a01b038516845290915290205460ff16610055576000828152602081815260408083206001600160a01b03851684529091529020805460ff191660011790556100b33390565b6001600160a01b0316816001600160a01b0316837f2f8788117e7eff1d82e926ec794901d17c78024a50270940304540a733656f0d60405160405180910390a45050565b610792806101066000396000f3fe608060405234801561001057600080fd5b506004361061007d5760003560e01c806336568abe1161005b57806336568abe146100f057806391d1485414610103578063a217fddf14610116578063d547741f1461011e57600080fd5b806301ffc9a714610082578063248a9ca3146100aa5780632f2ff15d146100db575b600080fd5b6100956100903660046105f8565b610131565b60405190151581526020015b60405180910390f35b6100cd6100b83660046105a6565b60009081526020819052604090206001015490565b6040519081526020016100a1565b6100ee6100e93660046105be565b610168565b005b6100ee6100fe3660046105be565b610192565b6100956101113660046105be565b610215565b6100cd600081565b6100ee61012c3660046105be565b61023e565b60006001600160e01b03198216637965db0b60e01b148061016257506301ffc9a760e01b6001600160e01b03198316145b92915050565b60008281526020819052604090206001015461018381610263565b61018d8383610270565b505050565b6001600160a01b03811633146102075760405162461bcd60e51b815260206004820152602f60248201527f416363657373436f6e74726f6c3a2063616e206f6e6c792072656e6f756e636560448201526e103937b632b9903337b91039b2b63360891b60648201526084015b60405180910390fd5b61021182826102f4565b5050565b6000918252602082815260408084206001600160a01b0393909316845291905290205460ff1690565b60008281526020819052604090206001015461025981610263565b61018d83836102f4565b61026d8133610359565b50565b61027a8282610215565b610211576000828152602081815260408083206001600160a01b03851684529091529020805460ff191660011790556102b03390565b6001600160a01b0316816001600160a01b0316837f2f8788117e7eff1d82e926ec794901d17c78024a50270940304540a733656f0d60405160405180910390a45050565b6102fe8282610215565b15610211576000828152602081815260408083206001600160a01b0385168085529252808320805460ff1916905551339285917ff6391f5c32d9c69d2a47ea670b442974b53935d1edc7fd64eb21e047a839171b9190a45050565b6103638282610215565b6102115761037b816001600160a01b031660146103bd565b6103868360206103bd565b604051602001610397929190610620565b60408051601f198184030181529082905262461bcd60e51b82526101fe91600401610695565b606060006103cc8360026106e0565b6103d79060026106c8565b67ffffffffffffffff8111156103fd57634e487b7160e01b600052604160045260246000fd5b6040519080825280601f01601f191660200182016040528015610427576020820181803683370190505b509050600360fc1b8160008151811061045057634e487b7160e01b600052603260045260246000fd5b60200101906001600160f81b031916908160001a905350600f60fb1b8160018151811061048d57634e487b7160e01b600052603260045260246000fd5b60200101906001600160f81b031916908160001a90535060006104b18460026106e0565b6104bc9060016106c8565b90505b6001811115610550576f181899199a1a9b1b9c1cb0b131b232b360811b85600f16601081106104fe57634e487b7160e01b600052603260045260246000fd5b1a60f81b82828151811061052257634e487b7160e01b600052603260045260246000fd5b60200101906001600160f81b031916908160001a90535060049490941c936105498161072f565b90506104bf565b50831561059f5760405162461bcd60e51b815260206004820181905260248201527f537472696e67733a20686578206c656e67746820696e73756666696369656e7460448201526064016101fe565b9392505050565b6000602082840312156105b7578081fd5b5035919050565b600080604083850312156105d0578081fd5b8235915060208301356001600160a01b03811681146105ed578182fd5b809150509250929050565b600060208284031215610609578081fd5b81356001600160e01b03198116811461059f578182fd5b7f416363657373436f6e74726f6c3a206163636f756e74200000000000000000008152600083516106588160178501602088016106ff565b7001034b99036b4b9b9b4b733903937b6329607d1b60179184019182015283516106898160288401602088016106ff565b01602801949350505050565b60208152600082518060208401526106b48160408501602087016106ff565b601f01601f19169190910160400192915050565b600082198211156106db576106db610746565b500190565b60008160001904831182151516156106fa576106fa610746565b500290565b60005b8381101561071a578181015183820152602001610702565b83811115610729576000848401525b50505050565b60008161073e5761073e610746565b506000190190565b634e487b7160e01b600052601160045260246000fdfea264697066735822122088d156e5233b07bf12f7c8bb8e692081bf937f59070c93de962b0aa3e824e8a264736f6c63430008040033",
  "devdoc": {
    "kind": "dev",
    "methods": {
      "getRoleAdmin(bytes32)": {
        "details": "Returns the admin role that controls `role`. See {grantRole} and {revokeRole}. To change a role's admin, use {_setRoleAdmin}."
      },
      "grantRole(bytes32,address)": {
        "details": "Grants `role` to `account`. If `account` had not been already granted `role`, emits a {RoleGranted} event. Requirements: - the caller must have ``role``'s admin role. May emit a {RoleGranted} event."
      },
      "hasRole(bytes32,address)": {
        "details": "Returns `true` if `account` has been granted `role`."
      },
      "renounceRole(bytes32,address)": {
        "details": "Revokes `role` from the calling account. Roles are often managed via {grantRole} and {revokeRole}: this function's purpose is to provide a mechanism for accounts to lose their privileges if they are compromised (such as when a trusted device is misplaced). If the calling account had been revoked `role`, emits a {RoleRevoked} event. Requirements: - the caller must be `account`. May emit a {RoleRevoked} event."
      },
      "revokeRole(bytes32,address)": {
        "details": "Revokes `role` from `account`. If `account` had been granted `role`, emits a {RoleRevoked} event. Requirements: - the caller must have ``role``'s admin role. May emit a {RoleRevoked} event."
      },
      "supportsInterface(bytes4)": {
        "details": "See {IERC165-supportsInterface}."
      }
    },
    "version": 1
  },
  "userdoc": {
    "kind": "user",
    "methods": {},
    "version": 1
  },
  "storageLayout": {
    "storage": [
      {
        "astId": 418,
        "contract": "contracts/VAccessControl.sol:VAccessControl",
        "label": "_roles",
        "offset": 0,
        "slot": "0",
        "type": "t_mapping(t_bytes32,t_struct(RoleData)413_storage)"
      }
    ],
    "types": {
      "t_address": {
        "encoding": "inplace",
        "label": "address",
        "numberOfBytes": "20"
      },
      "t_bool": {
        "encoding": "inplace",
        "label": "bool",
        "numberOfBytes": "1"
      },
      "t_bytes32": {
        "encoding": "inplace",
        "label": "bytes32",
        "numberOfBytes": "32"
      },
      "t_mapping(t_address,t_bool)": {
        "encoding": "mapping",
        "key": "t_address",
        "label": "mapping(address => bool)",
        "numberOfBytes": "32",
        "value": "t_bool"
      },
      "t_mapping(t_bytes32,t_struct(RoleData)413_storage)": {
        "encoding": "mapping",
        "key": "t_bytes32",
        "label": "mapping(bytes32 => struct AccessControl.RoleData)",
        "numberOfBytes": "32",
        "value": "t_struct(RoleData)413_storage"
      },
      "t_struct(RoleData)413_storage": {
        "encoding": "inplace",
        "label": "struct AccessControl.RoleData",
        "members": [
          {
            "astId": 410,
            "contract": "contracts/VAccessControl.sol:VAccessControl",
            "label": "members",
            "offset": 0,
            "slot": "0",
            "type": "t_mapping(t_address,t_bool)"
          },
          {
            "astId": 412,
            "contract": "contracts/VAccessControl.sol:VAccessControl",
            "label": "adminRole",
            "offset": 0,
            "slot": "1",
            "type": "t_bytes32"
          }
        ],
        "numberOfBytes": "64"
      }
    }
  }
}