{
  "address": "0x404227ea17BE151c571B4DA72A5813788E50b117",
  "abi": [
    {
      "inputs": [
        {
          "internalType": "address",
          "name": "beacon",
          "type": "address"
        },
        {
          "internalType": "address",
          "name": "miniMeToken",
          "type": "address"
        },
        {
          "internalType": "address",
          "name": "vetoNFT",
          "type": "address"
        },
        {
          "internalType": "address",
          "name": "acl",
          "type": "address"
        }
      ],
      "stateMutability": "nonpayable",
      "type": "constructor"
    },
    {
      "anonymous": false,
      "inputs": [
        {
          "indexed": false,
          "internalType": "address",
          "name": "previousAdmin",
          "type": "address"
        },
        {
          "indexed": false,
          "internalType": "address",
          "name": "newAdmin",
          "type": "address"
        }
      ],
      "name": "AdminChanged",
      "type": "event"
    },
    {
      "anonymous": false,
      "inputs": [
        {
          "indexed": true,
          "internalType": "address",
          "name": "beacon",
          "type": "address"
        }
      ],
      "name": "BeaconUpgraded",
      "type": "event"
    },
    {
      "anonymous": false,
      "inputs": [
        {
          "indexed": true,
          "internalType": "address",
          "name": "implementation",
          "type": "address"
        }
      ],
      "name": "Upgraded",
      "type": "event"
    },
    {
      "stateMutability": "payable",
      "type": "fallback"
    },
    {
      "inputs": [],
      "name": "__fallback",
      "outputs": [],
      "stateMutability": "nonpayable",
      "type": "function"
    },
    {
      "inputs": [],
      "name": "accessControl",
      "outputs": [
        {
          "internalType": "contract AccessControl",
          "name": "",
          "type": "address"
        }
      ],
      "stateMutability": "view",
      "type": "function"
    },
    {
      "stateMutability": "payable",
      "type": "receive"
    }
  ],
  "transactionHash": "0x76e0f72aa523e3748455c18b0b61f5ce4a693ee6df01a596edac55f7f86da81b",
  "args": [
    "0x22A285a7A45d69202f4E2883c3b2053bfb385003",
    "0x8E1C64877Ed70804D46830B2E8B10Cc6303306C2",
    "0x406A7946A14BF7d790D4346C6B526900a25b39ba",
    "0x8a5508a606B4508409A207eb109fE191c7c91012"
  ],
  "numDeployments": 1,
  "solcInputHash": "f0051e101a42643440f23acfd8fc3ff0",
  "bytecode": "0x60806040523480156200001157600080fd5b5060405162000a9838038062000a988339810160408190526200003491620004fd565b6040516001600160a01b038085166024830152808416604483015282166064820152849063c0c53b8b60e01b90608401604051602081830303815290604052906001600160e01b0319166020820180516001600160e01b038381831617835250505050620000ab82826000620000b760201b60201c565b505050505050620005db565b620000c2836200019c565b6040516001600160a01b038416907f1cf3b03a6cf19fa2baba4df148e9dcabedea7f8a5c07840e207e5c089be95d3e90600090a2600082511180620001045750805b15620001975762000195836001600160a01b0316635c60da1b6040518163ffffffff1660e01b815260040160206040518083038186803b1580156200014857600080fd5b505afa1580156200015d573d6000803e3d6000fd5b505050506040513d601f19601f82011682018060405250810190620001839190620004e0565b836200035e60201b6200015e1760201c565b505b505050565b620001b2816200038d60201b6200018a1760201c565b620002125760405162461bcd60e51b815260206004820152602560248201527f455243313936373a206e657720626561636f6e206973206e6f74206120636f6e6044820152641d1c9858dd60da1b60648201526084015b60405180910390fd5b6200029c816001600160a01b0316635c60da1b6040518163ffffffff1660e01b815260040160206040518083038186803b1580156200025057600080fd5b505afa15801562000265573d6000803e3d6000fd5b505050506040513d601f19601f820116820180604052508101906200028b9190620004e0565b6200038d60201b6200018a1760201c565b620003035760405162461bcd60e51b815260206004820152603060248201527f455243313936373a20626561636f6e20696d706c656d656e746174696f6e206960448201526f1cc81b9bdd08184818dbdb9d1c9858dd60821b606482015260840162000209565b806200033d7fa3f0ad74e5423aebfd80d3ef4346578335a9a72aeaee59ff6cb3582b35133d5060001b6200039c60201b620001991760201c565b80546001600160a01b0319166001600160a01b039290921691909117905550565b606062000386838360405180606001604052806027815260200162000a71602791396200039f565b9392505050565b6001600160a01b03163b151590565b90565b60606001600160a01b0384163b620004095760405162461bcd60e51b815260206004820152602660248201527f416464726573733a2064656c65676174652063616c6c20746f206e6f6e2d636f6044820152651b9d1c9858dd60d21b606482015260840162000209565b600080856001600160a01b03168560405162000426919062000559565b600060405180830381855af49150503d806000811462000463576040519150601f19603f3d011682016040523d82523d6000602084013e62000468565b606091505b5090925090506200047b82828662000485565b9695505050505050565b606083156200049657508162000386565b825115620004a75782518084602001fd5b8160405162461bcd60e51b815260040162000209919062000577565b80516001600160a01b0381168114620004db57600080fd5b919050565b600060208284031215620004f2578081fd5b6200038682620004c3565b6000806000806080858703121562000513578283fd5b6200051e85620004c3565b93506200052e60208601620004c3565b92506200053e60408601620004c3565b91506200054e60608601620004c3565b905092959194509250565b600082516200056d818460208701620005ac565b9190910192915050565b602081526000825180602084015262000598816040850160208701620005ac565b601f01601f19169190910160400192915050565b60005b83811015620005c9578181015183820152602001620005af565b83811115620001955750506000910152565b61048680620005eb6000396000f3fe60806040526004361061002d5760003560e01c806307fedfeb1461004457806313007d55146100595761003c565b3661003c5761003a610095565b005b61003a610095565b34801561005057600080fd5b5061003a6100a7565b34801561006557600080fd5b50600054610079906001600160a01b031681565b6040516001600160a01b03909116815260200160405180910390f35b6100a56100a061019c565b610244565b565b604051339061011e907f544f444f3a20696d706c656d656e7420616e20656d657267656e6379206d657481527f686f6420746f2074656d706f726172696c792070617573652074686520636f6e6020820152753a3930b1ba1034b7103a343290333aba3ab93297171760511b604082015260560190565b600060405180830381855af49150503d8060008114610159576040519150601f19603f3d011682016040523d82523d6000602084013e505050565b505050565b6060610183838360405180606001604052806027815260200161042a60279139610268565b9392505050565b6001600160a01b03163b151590565b90565b60006101cf7fa3f0ad74e5423aebfd80d3ef4346578335a9a72aeaee59ff6cb3582b35133d50546001600160a01b031690565b6001600160a01b0316635c60da1b6040518163ffffffff1660e01b815260040160206040518083038186803b15801561020757600080fd5b505afa15801561021b573d6000803e3d6000fd5b505050506040513d601f19601f8201168201806040525081019061023f9190610383565b905090565b3660008037600080366000845af43d6000803e808015610263573d6000f35b3d6000fd5b60606001600160a01b0384163b6102d55760405162461bcd60e51b815260206004820152602660248201527f416464726573733a2064656c65676174652063616c6c20746f206e6f6e2d636f6044820152651b9d1c9858dd60d21b60648201526084015b60405180910390fd5b600080856001600160a01b0316856040516102f091906103aa565b600060405180830381855af49150503d806000811461032b576040519150601f19603f3d011682016040523d82523d6000602084013e610330565b606091505b509150915061034082828661034a565b9695505050505050565b60608315610359575081610183565b8251156103695782518084602001fd5b8160405162461bcd60e51b81526004016102cc91906103c6565b600060208284031215610394578081fd5b81516001600160a01b0381168114610183578182fd5b600082516103bc8184602087016103f9565b9190910192915050565b60208152600082518060208401526103e58160408501602087016103f9565b601f01601f19169190910160400192915050565b60005b838110156104145781810151838201526020016103fc565b83811115610423576000848401525b5050505056fe416464726573733a206c6f772d6c6576656c2064656c65676174652063616c6c206661696c6564a26469706673582212204013658b9b54758a998323d8b547302ae2aa309c0db51487fd33b0ee3585a6df64736f6c63430008040033416464726573733a206c6f772d6c6576656c2064656c65676174652063616c6c206661696c6564",
  "devdoc": {
    "kind": "dev",
    "methods": {},
    "version": 1
  },
  "userdoc": {
    "kind": "user",
    "methods": {},
    "version": 1
  },
  "storageLayout": {
    "storage": [
      {
        "astId": 3070,
        "contract": "contracts/VBeaconProxy.sol:VBeaconProxy",
        "label": "accessControl",
        "offset": 0,
        "slot": "0",
        "type": "t_contract(AccessControl)713"
      }
    ],
    "types": {
      "t_contract(AccessControl)713": {
        "encoding": "inplace",
        "label": "contract AccessControl",
        "numberOfBytes": "20"
      }
    }
  }
}