{
  "address": "0x406A7946A14BF7d790D4346C6B526900a25b39ba",
  "abi": [
    {
      "inputs": [
        {
          "internalType": "contract AccessControl",
          "name": "acl",
          "type": "address"
        }
      ],
      "stateMutability": "nonpayable",
      "type": "constructor"
    },
    {
      "anonymous": false,
      "inputs": [
        {
          "indexed": true,
          "internalType": "address",
          "name": "owner",
          "type": "address"
        },
        {
          "indexed": true,
          "internalType": "address",
          "name": "approved",
          "type": "address"
        },
        {
          "indexed": true,
          "internalType": "uint256",
          "name": "tokenId",
          "type": "uint256"
        }
      ],
      "name": "Approval",
      "type": "event"
    },
    {
      "anonymous": false,
      "inputs": [
        {
          "indexed": true,
          "internalType": "address",
          "name": "owner",
          "type": "address"
        },
        {
          "indexed": true,
          "internalType": "address",
          "name": "operator",
          "type": "address"
        },
        {
          "indexed": false,
          "internalType": "bool",
          "name": "approved",
          "type": "bool"
        }
      ],
      "name": "ApprovalForAll",
      "type": "event"
    },
    {
      "anonymous": false,
      "inputs": [
        {
          "indexed": true,
          "internalType": "address",
          "name": "from",
          "type": "address"
        },
        {
          "indexed": true,
          "internalType": "address",
          "name": "to",
          "type": "address"
        },
        {
          "indexed": true,
          "internalType": "uint256",
          "name": "tokenId",
          "type": "uint256"
        }
      ],
      "name": "Transfer",
      "type": "event"
    },
    {
      "inputs": [],
      "name": "accessControl",
      "outputs": [
        {
          "internalType": "contract AccessControl",
          "name": "",
          "type": "address"
        }
      ],
      "stateMutability": "view",
      "type": "function"
    },
    {
      "inputs": [
        {
          "internalType": "address",
          "name": "to",
          "type": "address"
        },
        {
          "internalType": "uint256",
          "name": "tokenId",
          "type": "uint256"
        }
      ],
      "name": "approve",
      "outputs": [],
      "stateMutability": "nonpayable",
      "type": "function"
    },
    {
      "inputs": [
        {
          "internalType": "address",
          "name": "owner",
          "type": "address"
        }
      ],
      "name": "balanceOf",
      "outputs": [
        {
          "internalType": "uint256",
          "name": "",
          "type": "uint256"
        }
      ],
      "stateMutability": "view",
      "type": "function"
    },
    {
      "inputs": [
        {
          "internalType": "uint256",
          "name": "tokenId",
          "type": "uint256"
        }
      ],
      "name": "getApproved",
      "outputs": [
        {
          "internalType": "address",
          "name": "",
          "type": "address"
        }
      ],
      "stateMutability": "view",
      "type": "function"
    },
    {
      "inputs": [
        {
          "internalType": "address",
          "name": "owner",
          "type": "address"
        },
        {
          "internalType": "address",
          "name": "operator",
          "type": "address"
        }
      ],
      "name": "isApprovedForAll",
      "outputs": [
        {
          "internalType": "bool",
          "name": "",
          "type": "bool"
        }
      ],
      "stateMutability": "view",
      "type": "function"
    },
    {
      "inputs": [
        {
          "internalType": "address",
          "name": "user",
          "type": "address"
        }
      ],
      "name": "mint",
      "outputs": [
        {
          "internalType": "uint256",
          "name": "",
          "type": "uint256"
        }
      ],
      "stateMutability": "nonpayable",
      "type": "function"
    },
    {
      "inputs": [],
      "name": "name",
      "outputs": [
        {
          "internalType": "string",
          "name": "",
          "type": "string"
        }
      ],
      "stateMutability": "view",
      "type": "function"
    },
    {
      "inputs": [
        {
          "internalType": "uint256",
          "name": "tokenId",
          "type": "uint256"
        }
      ],
      "name": "ownerOf",
      "outputs": [
        {
          "internalType": "address",
          "name": "",
          "type": "address"
        }
      ],
      "stateMutability": "view",
      "type": "function"
    },
    {
      "inputs": [
        {
          "internalType": "address",
          "name": "from",
          "type": "address"
        },
        {
          "internalType": "address",
          "name": "to",
          "type": "address"
        },
        {
          "internalType": "uint256",
          "name": "tokenId",
          "type": "uint256"
        }
      ],
      "name": "safeTransferFrom",
      "outputs": [],
      "stateMutability": "nonpayable",
      "type": "function"
    },
    {
      "inputs": [
        {
          "internalType": "address",
          "name": "from",
          "type": "address"
        },
        {
          "internalType": "address",
          "name": "to",
          "type": "address"
        },
        {
          "internalType": "uint256",
          "name": "tokenId",
          "type": "uint256"
        },
        {
          "internalType": "bytes",
          "name": "data",
          "type": "bytes"
        }
      ],
      "name": "safeTransferFrom",
      "outputs": [],
      "stateMutability": "nonpayable",
      "type": "function"
    },
    {
      "inputs": [
        {
          "internalType": "address",
          "name": "operator",
          "type": "address"
        },
        {
          "internalType": "bool",
          "name": "approved",
          "type": "bool"
        }
      ],
      "name": "setApprovalForAll",
      "outputs": [],
      "stateMutability": "nonpayable",
      "type": "function"
    },
    {
      "inputs": [
        {
          "internalType": "bytes4",
          "name": "interfaceId",
          "type": "bytes4"
        }
      ],
      "name": "supportsInterface",
      "outputs": [
        {
          "internalType": "bool",
          "name": "",
          "type": "bool"
        }
      ],
      "stateMutability": "view",
      "type": "function"
    },
    {
      "inputs": [],
      "name": "symbol",
      "outputs": [
        {
          "internalType": "string",
          "name": "",
          "type": "string"
        }
      ],
      "stateMutability": "view",
      "type": "function"
    },
    {
      "inputs": [
        {
          "internalType": "uint256",
          "name": "tokenId",
          "type": "uint256"
        }
      ],
      "name": "tokenURI",
      "outputs": [
        {
          "internalType": "string",
          "name": "",
          "type": "string"
        }
      ],
      "stateMutability": "view",
      "type": "function"
    },
    {
      "inputs": [
        {
          "internalType": "address",
          "name": "from",
          "type": "address"
        },
        {
          "internalType": "address",
          "name": "to",
          "type": "address"
        },
        {
          "internalType": "uint256",
          "name": "tokenId",
          "type": "uint256"
        }
      ],
      "name": "transferFrom",
      "outputs": [],
      "stateMutability": "nonpayable",
      "type": "function"
    }
  ],
  "transactionHash": "0xd6b546e1188f399814e7d3b1642309f189df00542bd0e57e893f2a41b1782a04",
  "args": [
    "0x8a5508a606B4508409A207eb109fE191c7c91012"
  ],
  "numDeployments": 1,
  "solcInputHash": "dae2c028d77a4462f7e4b91191b2ca19",
  "bytecode": "0x60806040523480156200001157600080fd5b506040516200161f3803806200161f833981016040819052620000349162000167565b60408051808201825260098152682b32ba37aa37b5b2b760b91b6020808301918252835180850190945260048452635645544f60e01b9084015281519192916200008191600091620000c1565b50805162000097906001906020840190620000c1565b5050600680546001600160a01b0319166001600160a01b03939093169290921790915550620001d4565b828054620000cf9062000197565b90600052602060002090601f016020900481019282620000f357600085556200013e565b82601f106200010e57805160ff19168380011785556200013e565b828001600101855582156200013e579182015b828111156200013e57825182559160200191906001019062000121565b506200014c92915062000150565b5090565b5b808211156200014c576000815560010162000151565b60006020828403121562000179578081fd5b81516001600160a01b038116811462000190578182fd5b9392505050565b600181811c90821680620001ac57607f821691505b60208210811415620001ce57634e487b7160e01b600052602260045260246000fd5b50919050565b61143b80620001e46000396000f3fe608060405234801561001057600080fd5b50600436106100f55760003560e01c80636352211e11610097578063a22cb46511610066578063a22cb465146101ff578063b88d4fde14610212578063c87b56dd14610225578063e985e9c51461023857600080fd5b80636352211e146101b05780636a627842146101c357806370a08231146101e457806395d89b41146101f757600080fd5b8063095ea7b3116100d3578063095ea7b31461016257806313007d551461017757806323b872dd1461018a57806342842e0e1461019d57600080fd5b806301ffc9a7146100fa57806306fdde0314610122578063081812fc14610137575b600080fd5b61010d610108366004611131565b610274565b60405190151581526020015b60405180910390f35b61012a6102c6565b6040516101199190611219565b61014a610145366004611169565b610358565b6040516001600160a01b039091168152602001610119565b6101756101703660046110ec565b61037f565b005b60065461014a906001600160a01b031681565b610175610198366004610fa6565b61049a565b6101756101ab366004610fa6565b6104cb565b61014a6101be366004611169565b6104e6565b6101d66101d1366004610f5a565b610546565b604051908152602001610119565b6101d66101f2366004610f5a565b610698565b61012a61071e565b61017561020d3660046110b6565b61072d565b610175610220366004610fe1565b61073c565b61012a610233366004611169565b610774565b61010d610246366004610f74565b6001600160a01b03918216600090815260056020908152604080832093909416825291909152205460ff1690565b60006001600160e01b031982166380ac58cd60e01b14806102a557506001600160e01b03198216635b5e139f60e01b145b806102c057506301ffc9a760e01b6001600160e01b03198316145b92915050565b6060600080546102d59061133b565b80601f01602080910402602001604051908101604052809291908181526020018280546103019061133b565b801561034e5780601f106103235761010080835404028352916020019161034e565b820191906000526020600020905b81548152906001019060200180831161033157829003601f168201915b5050505050905090565b6000610363826107e8565b506000908152600460205260409020546001600160a01b031690565b600061038a826104e6565b9050806001600160a01b0316836001600160a01b031614156103fd5760405162461bcd60e51b815260206004820152602160248201527f4552433732313a20617070726f76616c20746f2063757272656e74206f776e656044820152603960f91b60648201526084015b60405180910390fd5b336001600160a01b038216148061041957506104198133610246565b61048b5760405162461bcd60e51b815260206004820152603e60248201527f4552433732313a20617070726f76652063616c6c6572206973206e6f7420746f60448201527f6b656e206f776e6572206e6f7220617070726f76656420666f7220616c6c000060648201526084016103f4565b610495838361084a565b505050565b6104a433826108b8565b6104c05760405162461bcd60e51b81526004016103f49061127e565b610495838383610937565b6104958383836040518060200160405280600081525061073c565b6000818152600260205260408120546001600160a01b0316806102c05760405162461bcd60e51b8152602060048201526018602482015277115490cdcc8c4e881a5b9d985b1a59081d1bdad95b88125160421b60448201526064016103f4565b6006546000907ffc7ecb5ee0a45e138101b775cdcead1108c55beb6520007218d40ee59c38cfdc906001600160a01b03166105ac5760405162461bcd60e51b81526020600482015260066024820152651393d7d050d360d21b60448201526064016103f4565b600654604051632474521560e21b8152600481018390523360248201526001600160a01b03909116906391d148549060440160206040518083038186803b1580156105f657600080fd5b505afa15801561060a573d6000803e3d6000fd5b505050506040513d601f19601f8201168201806040525081019061062e9190611115565b61066a5760405162461bcd60e51b815260206004820152600d60248201526c1050d0d154d4d7d11153925151609a1b60448201526064016103f4565b610678600780546001019055565b600061068360075490565b905061068f8482610ad3565b91505b50919050565b60006001600160a01b0382166107025760405162461bcd60e51b815260206004820152602960248201527f4552433732313a2061646472657373207a65726f206973206e6f7420612076616044820152683634b21037bbb732b960b91b60648201526084016103f4565b506001600160a01b031660009081526003602052604090205490565b6060600180546102d59061133b565b610738338383610c15565b5050565b61074633836108b8565b6107625760405162461bcd60e51b81526004016103f49061127e565b61076e84848484610ce4565b50505050565b606061077f826107e8565b600061079660408051602081019091526000815290565b905060008151116107b657604051806020016040528060008152506107e1565b806107c084610d17565b6040516020016107d19291906111ad565b6040516020818303038152906040525b9392505050565b6000818152600260205260409020546001600160a01b03166108475760405162461bcd60e51b8152602060048201526018602482015277115490cdcc8c4e881a5b9d985b1a59081d1bdad95b88125160421b60448201526064016103f4565b50565b600081815260046020526040902080546001600160a01b0319166001600160a01b038416908117909155819061087f826104e6565b6001600160a01b03167f8c5be1e5ebec7d5bd14f71427d1e84f3dd0314c0f7b2291e5b200ac8c7c3b92560405160405180910390a45050565b6000806108c4836104e6565b9050806001600160a01b0316846001600160a01b0316148061090b57506001600160a01b0380821660009081526005602090815260408083209388168352929052205460ff165b8061092f5750836001600160a01b031661092484610358565b6001600160a01b0316145b949350505050565b826001600160a01b031661094a826104e6565b6001600160a01b0316146109ae5760405162461bcd60e51b815260206004820152602560248201527f4552433732313a207472616e736665722066726f6d20696e636f72726563742060448201526437bbb732b960d91b60648201526084016103f4565b6001600160a01b038216610a105760405162461bcd60e51b8152602060048201526024808201527f4552433732313a207472616e7366657220746f20746865207a65726f206164646044820152637265737360e01b60648201526084016103f4565b610a1b60008261084a565b6001600160a01b0383166000908152600360205260408120805460019290610a449084906112f8565b90915550506001600160a01b0382166000908152600360205260408120805460019290610a729084906112cc565b909155505060008181526002602052604080822080546001600160a01b0319166001600160a01b0386811691821790925591518493918716917fddf252ad1be2c89b69c2b068fc378daa952ba7f163c4a11628f55a4df523b3ef91a4505050565b6001600160a01b038216610b295760405162461bcd60e51b815260206004820181905260248201527f4552433732313a206d696e7420746f20746865207a65726f206164647265737360448201526064016103f4565b6000818152600260205260409020546001600160a01b031615610b8e5760405162461bcd60e51b815260206004820152601c60248201527f4552433732313a20746f6b656e20616c7265616479206d696e7465640000000060448201526064016103f4565b6001600160a01b0382166000908152600360205260408120805460019290610bb79084906112cc565b909155505060008181526002602052604080822080546001600160a01b0319166001600160a01b03861690811790915590518392907fddf252ad1be2c89b69c2b068fc378daa952ba7f163c4a11628f55a4df523b3ef908290a45050565b816001600160a01b0316836001600160a01b03161415610c775760405162461bcd60e51b815260206004820152601960248201527f4552433732313a20617070726f766520746f2063616c6c65720000000000000060448201526064016103f4565b6001600160a01b03838116600081815260056020908152604080832094871680845294825291829020805460ff191686151590811790915591519182527f17307eab39ab6107e8899845ad3d59bd9653f200f220920489ca2b5937696c31910160405180910390a3505050565b610cef848484610937565b610cfb84848484610e31565b61076e5760405162461bcd60e51b81526004016103f49061122c565b606081610d3b5750506040805180820190915260018152600360fc1b602082015290565b8160005b8115610d655780610d4f81611370565b9150610d5e9050600a836112e4565b9150610d3f565b60008167ffffffffffffffff811115610d8e57634e487b7160e01b600052604160045260246000fd5b6040519080825280601f01601f191660200182016040528015610db8576020820181803683370190505b5090505b841561092f57610dcd6001836112f8565b9150610dda600a8661138b565b610de59060306112cc565b60f81b818381518110610e0857634e487b7160e01b600052603260045260246000fd5b60200101906001600160f81b031916908160001a905350610e2a600a866112e4565b9450610dbc565b60006001600160a01b0384163b15610f3357604051630a85bd0160e11b81526001600160a01b0385169063150b7a0290610e759033908990889088906004016111dc565b602060405180830381600087803b158015610e8f57600080fd5b505af1925050508015610ebf575060408051601f3d908101601f19168201909252610ebc9181019061114d565b60015b610f19573d808015610eed576040519150601f19603f3d011682016040523d82523d6000602084013e610ef2565b606091505b508051610f115760405162461bcd60e51b81526004016103f49061122c565b805181602001fd5b6001600160e01b031916630a85bd0160e11b14905061092f565b506001949350505050565b80356001600160a01b0381168114610f5557600080fd5b919050565b600060208284031215610f6b578081fd5b6107e182610f3e565b60008060408385031215610f86578081fd5b610f8f83610f3e565b9150610f9d60208401610f3e565b90509250929050565b600080600060608486031215610fba578081fd5b610fc384610f3e565b9250610fd160208501610f3e565b9150604084013590509250925092565b60008060008060808587031215610ff6578081fd5b610fff85610f3e565b935061100d60208601610f3e565b925060408501359150606085013567ffffffffffffffff80821115611030578283fd5b818701915087601f830112611043578283fd5b813581811115611055576110556113cb565b604051601f8201601f19908116603f0116810190838211818310171561107d5761107d6113cb565b816040528281528a6020848701011115611095578586fd5b82602086016020830137918201602001949094529598949750929550505050565b600080604083850312156110c8578182fd5b6110d183610f3e565b915060208301356110e1816113e1565b809150509250929050565b600080604083850312156110fe578182fd5b61110783610f3e565b946020939093013593505050565b600060208284031215611126578081fd5b81516107e1816113e1565b600060208284031215611142578081fd5b81356107e1816113ef565b60006020828403121561115e578081fd5b81516107e1816113ef565b60006020828403121561117a578081fd5b5035919050565b6000815180845261119981602086016020860161130f565b601f01601f19169290920160200192915050565b600083516111bf81846020880161130f565b8351908301906111d381836020880161130f565b01949350505050565b6001600160a01b038581168252841660208201526040810183905260806060820181905260009061120f90830184611181565b9695505050505050565b6020815260006107e16020830184611181565b60208082526032908201527f4552433732313a207472616e7366657220746f206e6f6e20455243373231526560408201527131b2b4bb32b91034b6b83632b6b2b73a32b960711b606082015260800190565b6020808252602e908201527f4552433732313a2063616c6c6572206973206e6f7420746f6b656e206f776e6560408201526d1c881b9bdc88185c1c1c9bdd995960921b606082015260800190565b600082198211156112df576112df61139f565b500190565b6000826112f3576112f36113b5565b500490565b60008282101561130a5761130a61139f565b500390565b60005b8381101561132a578181015183820152602001611312565b8381111561076e5750506000910152565b600181811c9082168061134f57607f821691505b6020821081141561069257634e487b7160e01b600052602260045260246000fd5b60006000198214156113845761138461139f565b5060010190565b60008261139a5761139a6113b5565b500690565b634e487b7160e01b600052601160045260246000fd5b634e487b7160e01b600052601260045260246000fd5b634e487b7160e01b600052604160045260246000fd5b801515811461084757600080fd5b6001600160e01b03198116811461084757600080fdfea2646970667358221220f7471d831abae7a81212ce386300ff3701cb365147f00b07c4ded8bb7812473664736f6c63430008040033",
  "devdoc": {
    "kind": "dev",
    "methods": {
      "approve(address,uint256)": {
        "details": "See {IERC721-approve}."
      },
      "balanceOf(address)": {
        "details": "See {IERC721-balanceOf}."
      },
      "getApproved(uint256)": {
        "details": "See {IERC721-getApproved}."
      },
      "isApprovedForAll(address,address)": {
        "details": "See {IERC721-isApprovedForAll}."
      },
      "name()": {
        "details": "See {IERC721Metadata-name}."
      },
      "ownerOf(uint256)": {
        "details": "See {IERC721-ownerOf}."
      },
      "safeTransferFrom(address,address,uint256)": {
        "details": "See {IERC721-safeTransferFrom}."
      },
      "safeTransferFrom(address,address,uint256,bytes)": {
        "details": "See {IERC721-safeTransferFrom}."
      },
      "setApprovalForAll(address,bool)": {
        "details": "See {IERC721-setApprovalForAll}."
      },
      "supportsInterface(bytes4)": {
        "details": "See {IERC165-supportsInterface}."
      },
      "symbol()": {
        "details": "See {IERC721Metadata-symbol}."
      },
      "tokenURI(uint256)": {
        "details": "See {IERC721Metadata-tokenURI}."
      },
      "transferFrom(address,address,uint256)": {
        "details": "See {IERC721-transferFrom}."
      }
    },
    "version": 1
  },
  "userdoc": {
    "kind": "user",
    "methods": {},
    "version": 1
  },
  "storageLayout": {
    "storage": [
      {
        "astId": 2145,
        "contract": "contracts/VetoNFT.sol:VetoNFT",
        "label": "_name",
        "offset": 0,
        "slot": "0",
        "type": "t_string_storage"
      },
      {
        "astId": 2147,
        "contract": "contracts/VetoNFT.sol:VetoNFT",
        "label": "_symbol",
        "offset": 0,
        "slot": "1",
        "type": "t_string_storage"
      },
      {
        "astId": 2151,
        "contract": "contracts/VetoNFT.sol:VetoNFT",
        "label": "_owners",
        "offset": 0,
        "slot": "2",
        "type": "t_mapping(t_uint256,t_address)"
      },
      {
        "astId": 2155,
        "contract": "contracts/VetoNFT.sol:VetoNFT",
        "label": "_balances",
        "offset": 0,
        "slot": "3",
        "type": "t_mapping(t_address,t_uint256)"
      },
      {
        "astId": 2159,
        "contract": "contracts/VetoNFT.sol:VetoNFT",
        "label": "_tokenApprovals",
        "offset": 0,
        "slot": "4",
        "type": "t_mapping(t_uint256,t_address)"
      },
      {
        "astId": 2165,
        "contract": "contracts/VetoNFT.sol:VetoNFT",
        "label": "_operatorApprovals",
        "offset": 0,
        "slot": "5",
        "type": "t_mapping(t_address,t_mapping(t_address,t_bool))"
      },
      {
        "astId": 3869,
        "contract": "contracts/VetoNFT.sol:VetoNFT",
        "label": "accessControl",
        "offset": 0,
        "slot": "6",
        "type": "t_contract(AccessControl)713"
      },
      {
        "astId": 4493,
        "contract": "contracts/VetoNFT.sol:VetoNFT",
        "label": "_tokenIds",
        "offset": 0,
        "slot": "7",
        "type": "t_struct(Counter)3470_storage"
      }
    ],
    "types": {
      "t_address": {
        "encoding": "inplace",
        "label": "address",
        "numberOfBytes": "20"
      },
      "t_bool": {
        "encoding": "inplace",
        "label": "bool",
        "numberOfBytes": "1"
      },
      "t_contract(AccessControl)713": {
        "encoding": "inplace",
        "label": "contract AccessControl",
        "numberOfBytes": "20"
      },
      "t_mapping(t_address,t_bool)": {
        "encoding": "mapping",
        "key": "t_address",
        "label": "mapping(address => bool)",
        "numberOfBytes": "32",
        "value": "t_bool"
      },
      "t_mapping(t_address,t_mapping(t_address,t_bool))": {
        "encoding": "mapping",
        "key": "t_address",
        "label": "mapping(address => mapping(address => bool))",
        "numberOfBytes": "32",
        "value": "t_mapping(t_address,t_bool)"
      },
      "t_mapping(t_address,t_uint256)": {
        "encoding": "mapping",
        "key": "t_address",
        "label": "mapping(address => uint256)",
        "numberOfBytes": "32",
        "value": "t_uint256"
      },
      "t_mapping(t_uint256,t_address)": {
        "encoding": "mapping",
        "key": "t_uint256",
        "label": "mapping(uint256 => address)",
        "numberOfBytes": "32",
        "value": "t_address"
      },
      "t_string_storage": {
        "encoding": "bytes",
        "label": "string",
        "numberOfBytes": "32"
      },
      "t_struct(Counter)3470_storage": {
        "encoding": "inplace",
        "label": "struct Counters.Counter",
        "members": [
          {
            "astId": 3469,
            "contract": "contracts/VetoNFT.sol:VetoNFT",
            "label": "_value",
            "offset": 0,
            "slot": "0",
            "type": "t_uint256"
          }
        ],
        "numberOfBytes": "32"
      },
      "t_uint256": {
        "encoding": "inplace",
        "label": "uint256",
        "numberOfBytes": "32"
      }
    }
  }
}