{
  "address": "0x11e500F2281E23bBd737957778A7826DAf049207",
  "abi": [
    {
      "anonymous": false,
      "inputs": [
        {
          "indexed": false,
          "internalType": "uint8",
          "name": "version",
          "type": "uint8"
        }
      ],
      "name": "Initialized",
      "type": "event"
    },
    {
      "anonymous": false,
      "inputs": [
        {
          "indexed": true,
          "internalType": "uint256",
          "name": "hash",
          "type": "uint256"
        }
      ],
      "name": "ProposalCreated",
      "type": "event"
    },
    {
      "anonymous": false,
      "inputs": [
        {
          "indexed": true,
          "internalType": "uint256",
          "name": "hash",
          "type": "uint256"
        }
      ],
      "name": "ProposalExecuted",
      "type": "event"
    },
    {
      "anonymous": false,
      "inputs": [
        {
          "indexed": true,
          "internalType": "uint256",
          "name": "hash",
          "type": "uint256"
        },
        {
          "indexed": false,
          "internalType": "bool",
          "name": "support",
          "type": "bool"
        }
      ],
      "name": "ProposalQuorumReached",
      "type": "event"
    },
    {
      "inputs": [],
      "name": "MAX_ACTIVE_PROPOSALS",
      "outputs": [
        {
          "internalType": "uint8",
          "name": "",
          "type": "uint8"
        }
      ],
      "stateMutability": "view",
      "type": "function"
    },
    {
      "inputs": [],
      "name": "accessControl",
      "outputs": [
        {
          "internalType": "contract AccessControl",
          "name": "",
          "type": "address"
        }
      ],
      "stateMutability": "view",
      "type": "function"
    },
    {
      "inputs": [
        {
          "internalType": "uint256",
          "name": "hash",
          "type": "uint256"
        }
      ],
      "name": "countYeas",
      "outputs": [
        {
          "internalType": "uint32",
          "name": "",
          "type": "uint32"
        }
      ],
      "stateMutability": "view",
      "type": "function"
    },
    {
      "inputs": [
        {
          "internalType": "uint256",
          "name": "hash",
          "type": "uint256"
        }
      ],
      "name": "createProposal",
      "outputs": [],
      "stateMutability": "nonpayable",
      "type": "function"
    },
    {
      "inputs": [
        {
          "internalType": "uint256",
          "name": "hash",
          "type": "uint256"
        }
      ],
      "name": "execute",
      "outputs": [],
      "stateMutability": "nonpayable",
      "type": "function"
    },
    {
      "inputs": [
        {
          "internalType": "uint256",
          "name": "hash",
          "type": "uint256"
        }
      ],
      "name": "find",
      "outputs": [
        {
          "internalType": "bool",
          "name": "",
          "type": "bool"
        },
        {
          "internalType": "uint8",
          "name": "",
          "type": "uint8"
        }
      ],
      "stateMutability": "view",
      "type": "function"
    },
    {
      "inputs": [
        {
          "internalType": "contract IMiniMeToken",
          "name": "token",
          "type": "address"
        },
        {
          "internalType": "contract VetoNFT",
          "name": "vetoes_",
          "type": "address"
        },
        {
          "internalType": "contract AccessControl",
          "name": "accessControl_",
          "type": "address"
        }
      ],
      "name": "initialize",
      "outputs": [],
      "stateMutability": "nonpayable",
      "type": "function"
    },
    {
      "inputs": [
        {
          "internalType": "uint256",
          "name": "",
          "type": "uint256"
        }
      ],
      "name": "proposalExisted",
      "outputs": [
        {
          "internalType": "bool",
          "name": "",
          "type": "bool"
        }
      ],
      "stateMutability": "view",
      "type": "function"
    },
    {
      "inputs": [
        {
          "internalType": "uint256",
          "name": "",
          "type": "uint256"
        }
      ],
      "name": "proposals",
      "outputs": [
        {
          "internalType": "uint256",
          "name": "hash",
          "type": "uint256"
        },
        {
          "internalType": "uint32",
          "name": "createdTimestamp",
          "type": "uint32"
        },
        {
          "internalType": "uint32",
          "name": "createdBlockNumber",
          "type": "uint32"
        },
        {
          "components": [
            {
              "internalType": "address",
              "name": "token",
              "type": "address"
            },
            {
              "internalType": "address",
              "name": "destination",
              "type": "address"
            },
            {
              "internalType": "uint256",
              "name": "amount",
              "type": "uint256"
            },
            {
              "internalType": "bool",
              "name": "sendETH",
              "type": "bool"
            }
          ],
          "internalType": "struct Payment",
          "name": "payment",
          "type": "tuple"
        },
        {
          "internalType": "uint32",
          "name": "updatedBlockNumber",
          "type": "uint32"
        },
        {
          "internalType": "uint32",
          "name": "yeas",
          "type": "uint32"
        },
        {
          "internalType": "uint32",
          "name": "nays",
          "type": "uint32"
        },
        {
          "internalType": "bool",
          "name": "isExecuted",
          "type": "bool"
        },
        {
          "internalType": "bool",
          "name": "vetoed",
          "type": "bool"
        }
      ],
      "stateMutability": "view",
      "type": "function"
    },
    {
      "inputs": [
        {
          "internalType": "uint256",
          "name": "hash",
          "type": "uint256"
        }
      ],
      "name": "veto",
      "outputs": [],
      "stateMutability": "nonpayable",
      "type": "function"
    },
    {
      "inputs": [],
      "name": "vetoes",
      "outputs": [
        {
          "internalType": "contract VetoNFT",
          "name": "",
          "type": "address"
        }
      ],
      "stateMutability": "view",
      "type": "function"
    },
    {
      "inputs": [
        {
          "internalType": "uint256",
          "name": "hash",
          "type": "uint256"
        },
        {
          "internalType": "bool",
          "name": "support",
          "type": "bool"
        }
      ],
      "name": "vote",
      "outputs": [],
      "stateMutability": "nonpayable",
      "type": "function"
    },
    {
      "inputs": [
        {
          "internalType": "address",
          "name": "",
          "type": "address"
        },
        {
          "internalType": "uint256",
          "name": "",
          "type": "uint256"
        }
      ],
      "name": "voted",
      "outputs": [
        {
          "internalType": "enum VotingDAOV2.VoteType",
          "name": "",
          "type": "uint8"
        }
      ],
      "stateMutability": "view",
      "type": "function"
    },
    {
      "inputs": [],
      "name": "votingToken",
      "outputs": [
        {
          "internalType": "contract IMiniMeToken",
          "name": "",
          "type": "address"
        }
      ],
      "stateMutability": "view",
      "type": "function"
    },
    {
      "inputs": [
        {
          "internalType": "uint256",
          "name": "hash",
          "type": "uint256"
        },
        {
          "internalType": "address",
          "name": "to",
          "type": "address"
        },
        {
          "internalType": "uint256",
          "name": "amount",
          "type": "uint256"
        }
      ],
      "name": "withdrawETH",
      "outputs": [],
      "stateMutability": "nonpayable",
      "type": "function"
    },
    {
      "inputs": [
        {
          "internalType": "uint256",
          "name": "hash",
          "type": "uint256"
        },
        {
          "internalType": "address",
          "name": "token",
          "type": "address"
        },
        {
          "internalType": "address",
          "name": "to",
          "type": "address"
        },
        {
          "internalType": "uint256",
          "name": "amount",
          "type": "uint256"
        }
      ],
      "name": "withdrawToken",
      "outputs": [],
      "stateMutability": "nonpayable",
      "type": "function"
    },
    {
      "stateMutability": "payable",
      "type": "receive"
    }
  ],
  "transactionHash": "0x21b6cf109d97fe113ec3c07343c1e2b831c7aa7a213fba4c3cd57c5383e62c13",
  "args": [],
  "numDeployments": 1,
  "solcInputHash": "f0051e101a42643440f23acfd8fc3ff0",
  "bytecode": "0x608060405234801561001057600080fd5b506121b4806100206000396000f3fe6080604052600436106100f75760003560e01c8063a91937ad1161008a578063c9d27afe11610059578063c9d27afe14610370578063d8756f6a14610390578063f1ceef34146103c5578063fe0d94c11461040557600080fd5b8063a91937ad146102c1578063b0340123146102e8578063c0c53b8b14610308578063c591aa981461032857600080fd5b80633e530e5b116100c65780633e530e5b146102285780635a43dc001461026157806396cd918714610281578063a066ff42146102a157600080fd5b8063013cf08b1461010357806313007d55146101ae5780631d28dec7146101e65780631d5936221461020857600080fd5b366100fe57005b600080fd5b34801561010f57600080fd5b5061012361011e366004611ee7565b610425565b60408051998a5263ffffffff9889166020808c01919091529789168a82015286516001600160a01b039081166060808d0191909152988801511660808b015286015160a08a01529590940151151560c088015291851660e087015284166101008601529092166101208401529015156101408301521515610160820152610180015b60405180910390f35b3480156101ba57600080fd5b506000546101ce906001600160a01b031681565b6040516001600160a01b0390911681526020016101a5565b3480156101f257600080fd5b50610206610201366004611ee7565b6104cd565b005b34801561021457600080fd5b50610206610223366004611f5e565b610737565b34801561023457600080fd5b50610248610243366004611ee7565b610771565b60408051921515835260ff9091166020830152016101a5565b34801561026d57600080fd5b5061020661027c366004611ee7565b6107dc565b34801561028d57600080fd5b5061020661029c366004611f17565b610830565b3480156102ad57600080fd5b506048546101ce906001600160a01b031681565b3480156102cd57600080fd5b506102d6600a81565b60405160ff90911681526020016101a5565b3480156102f457600080fd5b506047546101ce906001600160a01b031681565b34801561031457600080fd5b50610206610323366004611e9d565b610875565b34801561033457600080fd5b50610363610343366004611e4f565b604960209081526000928352604080842090915290825290205460ff1681565b6040516101a59190611fe5565b34801561037c57600080fd5b5061020661038b366004611f95565b610d4a565b34801561039c57600080fd5b506103b06103ab366004611ee7565b6111b1565b60405163ffffffff90911681526020016101a5565b3480156103d157600080fd5b506103f56103e0366004611ee7565b604a6020526000908152604090205460ff1681565b60405190151581526020016101a5565b34801561041157600080fd5b50610206610420366004611ee7565b611217565b600181600a811061043557600080fd5b60070201805460018201546040805160808101825260028501546001600160a01b0390811682526003860154166020820152600485015491810191909152600584015460ff9081161515606083015260069094015492945063ffffffff8083169464010000000093849004821694929383831693908104831692600160401b82041691600160601b8204811691600160681b90041689565b6000806104d983610771565b91509150816040518060400160405280600f81526020016e11549493d497d393d517d193d55391608a1b8152509061052d5760405162461bcd60e51b8152600401610524919061200d565b60405180910390fd5b50600060018260ff16600a811061055457634e487b7160e01b600052603260045260246000fd5b60070201905080600601600d9054906101000a900460ff16156040518060400160405280600c81526020016b11549493d497d5915513d15160a21b815250906105b05760405162461bcd60e51b8152600401610524919061200d565b506105ba816114aa565b156040518060400160405280600d81526020016c11549493d497d1561412549151609a1b815250906105ff5760405162461bcd60e51b8152600401610524919061200d565b50600681015460408051808201909152601681527511549493d497d053149150511657d1561150d555115160521b602082015290600160601b900460ff161561065b5760405162461bcd60e51b8152600401610524919061200d565b506048546040516370a0823160e01b81523360048201526000916001600160a01b0316906370a082319060240160206040518083038186803b1580156106a057600080fd5b505afa1580156106b4573d6000803e3d6000fd5b505050506040513d601f19601f820116820180604052508101906106d89190611eff565b116040518060400160405280600d81526020016c1393d7d5915513d7d49251d215609a1b8152509061071d5760405162461bcd60e51b8152600401610524919061200d565b50600601805460ff60681b1916600160681b179055505050565b60408051608081018252600081526001600160a01b03841660208201529081018290526001606082015261076c9084906114d5565b505050565b60008060005b600a60ff821610156107d0578360018260ff16600a81106107a857634e487b7160e01b600052603260045260246000fd5b600702015414156107be57600194909350915050565b806107c8816120dc565b915050610777565b50600093849350915050565b61082d8161082860408051608080820183526000808352602080840182905283850182905260609384018290528451928301855281835282018190529281018390529081019190915290565b6114d5565b50565b61086f846040518060800160405280866001600160a01b03168152602001856001600160a01b03168152602001848152602001600015158152506114d5565b50505050565b600054600160a81b900460ff161580801561089d57506000546001600160a01b90910460ff16105b806108be5750303b1580156108be5750600054600160a01b900460ff166001145b6109215760405162461bcd60e51b815260206004820152602e60248201527f496e697469616c697a61626c653a20636f6e747261637420697320616c72656160448201526d191e481a5b9a5d1a585b1a5e995960921b6064820152608401610524565b6000805460ff60a01b1916600160a01b179055801561094e576000805460ff60a81b1916600160a81b1790555b6001600160a01b0382166109b05760405162461bcd60e51b8152602060048201526024808201527f416363657373436f6e74726f6c20616464726573732063616e6e6f74206265206044820152637a65726f60e01b6064820152608401610524565b6001600160a01b038416610a115760405162461bcd60e51b815260206004820152602260248201527f4d696e694d65546f6b656e20616464726573732063616e6e6f74206265207a65604482015261726f60f01b6064820152608401610524565b6001600160a01b038316610a675760405162461bcd60e51b815260206004820181905260248201527f5665746f546f6b656e20616464726573732063616e6e6f74206265207a65726f6044820152606401610524565b6305f5e10063ffffffff16846001600160a01b03166318160ddd6040518163ffffffff1660e01b815260040160206040518083038186803b158015610aab57600080fd5b505afa158015610abf573d6000803e3d6000fd5b505050506040513d601f19601f82011682018060405250810190610ae39190611eff565b14610b305760405162461bcd60e51b815260206004820152601760248201527f556e657870656374656420746f74616c20737570706c790000000000000000006044820152606401610524565b6040516370a0823160e01b81523360048201526305f5e100906001600160a01b038616906370a082319060240160206040518083038186803b158015610b7557600080fd5b505afa158015610b89573d6000803e3d6000fd5b505050506040513d601f19601f82011682018060405250810190610bad9190611eff565b14610bfa5760405162461bcd60e51b815260206004820152601860248201527f556e6578706563746564206f776e65722062616c616e636500000000000000006044820152606401610524565b600660ff16846001600160a01b031663313ce5676040518163ffffffff1660e01b815260040160206040518083038186803b158015610c3857600080fd5b505afa158015610c4c573d6000803e3d6000fd5b505050506040513d601f19601f82011682018060405250810190610c709190611fc4565b60ff1614610cc05760405162461bcd60e51b815260206004820152601d60248201527f556e6578706563746564206e756d626572206f6620646563696d616c730000006044820152606401610524565b604780546001600160a01b038087166001600160a01b031992831617909255604880548684169083161790556000805492851692909116919091179055801561086f576000805460ff60a81b19169055604051600181527f7f26b83ff96e1f2b6a682f133852f6798a09c465da95921460cefb38474024989060200160405180910390a150505050565b600080610d5684610771565b91509150816040518060400160405280600f81526020016e11549493d497d393d517d193d55391608a1b81525090610da15760405162461bcd60e51b8152600401610524919061200d565b50600060018260ff16600a8110610dc857634e487b7160e01b600052603260045260246000fd5b60070201905080600601600d9054906101000a900460ff16156040518060400160405280600c81526020016b11549493d497d5915513d15160a21b81525090610e245760405162461bcd60e51b8152600401610524919061200d565b50610e2e816114aa565b156040518060400160405280600d81526020016c11549493d497d1561412549151609a1b81525090610e735760405162461bcd60e51b8152600401610524919061200d565b50600681015460408051808201909152601681527511549493d497d053149150511657d1561150d555115160521b602082015290600160601b900460ff1615610ecf5760405162461bcd60e51b8152600401610524919061200d565b50604754600182015460405163277166bf60e11b815233600482015264010000000090910463ffffffff166024820152600091610f70916001600160a01b0390911690634ee2cd7e9060440160206040518083038186803b158015610f3357600080fd5b505afa158015610f47573d6000803e3d6000fd5b505050506040513d601f19601f82011682018060405250810190610f6b9190611eff565b61177f565b905060008163ffffffff16116040518060400160405280601a81526020017f4552524f525f494e53554646494349454e545f42414c414e434500000000000081525090610fd05760405162461bcd60e51b8152600401610524919061200d565b5060013360009081526049602090815260408083208a845290915290205460ff16600281111561101057634e487b7160e01b600052602160045260246000fd5b141561105857808260060160048282829054906101000a900463ffffffff1661103991906120b7565b92506101000a81548163ffffffff021916908363ffffffff1602179055505b60023360009081526049602090815260408083208a845290915290205460ff16600281111561109757634e487b7160e01b600052602160045260246000fd5b14156110df57808260060160088282829054906101000a900463ffffffff166110c091906120b7565b92506101000a81548163ffffffff021916908363ffffffff1602179055505b6110ea8286836117da565b846110f65760026110f9565b60015b3360009081526049602090815260408083208a84529091529020805460ff1916600183600281111561113b57634e487b7160e01b600052602160045260246000fd5b021790555061114982611893565b156111a95781547f7f49fee12481e1a69afde062c724e5af30c2fea2dcc0184b173e4f1342f75508611195846006015463ffffffff600160401b82048116640100000000909204161190565b604051901515815260200160405180910390a25b505050505050565b60008060006111bf84610771565b91509150816111d2575060009392505050565b60018160ff16600a81106111f657634e487b7160e01b600052603260045260246000fd5b6007020160060160049054906101000a900463ffffffff1692505050919050565b60008061122383610771565b91509150816040518060400160405280600f81526020016e11549493d497d393d517d193d55391608a1b8152509061126e5760405162461bcd60e51b8152600401610524919061200d565b50600060018260ff16600a811061129557634e487b7160e01b600052603260045260246000fd5b60070201905080600601600d9054906101000a900460ff16156040518060400160405280600c81526020016b11549493d497d5915513d15160a21b815250906112f15760405162461bcd60e51b8152600401610524919061200d565b506112fb816114aa565b156040518060400160405280600d81526020016c11549493d497d1561412549151609a1b815250906113405760405162461bcd60e51b8152600401610524919061200d565b50600681015460408051808201909152601681527511549493d497d053149150511657d1561150d555115160521b602082015290600160601b900460ff161561139c5760405162461bcd60e51b8152600401610524919061200d565b506113a681611893565b6040518060400160405280601b81526020017f4552524f525f51554f52554d5f49535f4e4f545f524541434845440000000000815250906113fa5760405162461bcd60e51b8152600401610524919061200d565b50611404816118b3565b604051806060016040528060268152602001612159602691399061143b5760405162461bcd60e51b8152600401610524919061200d565b506004810154158015906114535750611453816118b3565b1561146457611464816002016118f9565b60068101805460ff60601b1916600160601b17905560405184907f712ae1383f79ac853f8d882153778e0260ef8f03b504e2866e0593e04d2b291f90600090a250505050565b600181015460009042906114c8906203f4809063ffffffff16612060565b63ffffffff161092915050565b6000828152604a6020908152604091829020548251808401909352600f83526e22a92927a92fa1a7a62624a9a4a7a760891b9183019190915260ff161561152f5760405162461bcd60e51b8152600401610524919061200d565b506000828152604a6020526040808220805460ff1916600117905560475490516370a0823160e01b81523360048201526001600160a01b03909116906370a082319060240160206040518083038186803b15801561158c57600080fd5b505afa1580156115a0573d6000803e3d6000fd5b505050506040513d601f19601f820116820180604052508101906115c49190611eff565b116040518060400160405280601a81526020017f4552524f525f494e53554646494349454e545f42414c414e4345000000000000815250906116195760405162461bcd60e51b8152600401610524919061200d565b506040810151156116e65760006001600160a01b031681602001516001600160a01b03161415604051806040016040528060128152602001714552524f525f5a45524f5f4144445245535360701b815250906116885760405162461bcd60e51b8152600401610524919061200d565b5080606001516116e65780516040805180820190915260128152714552524f525f5a45524f5f4144445245535360701b6020820152906001600160a01b03166116e45760405162461bcd60e51b8152600401610524919061200d565b505b6117506040518061012001604052808481526020016117044261177f565b63ffffffff1681526020016117184361177f565b63ffffffff16815260208101849052600060408201819052606082018190526080820181905260a0820181905260c090910152611946565b60405182907fc2c021f5d73c63c481d336fbbafec58f694fc45095f00b02d2deb8cca59afe0790600090a25050565b60408051808201909152601581527455494e5433325f4e554d4245525f544f4f5f42494760581b602082015260009063ffffffff8311156117d35760405162461bcd60e51b8152600401610524919061200d565b5090919050565b811561182657808360060160048282829054906101000a900463ffffffff166118039190612060565b92506101000a81548163ffffffff021916908363ffffffff160217905550611868565b808360060160088282829054906101000a900463ffffffff166118499190612060565b92506101000a81548163ffffffff021916908363ffffffff1602179055505b6118714361177f565b600693909301805463ffffffff191663ffffffff909416939093179092555050565b600061189e826118b3565b806118ad57506118ad82611af0565b92915050565b60006118c460026305f5e100612088565b6118cf906001612060565b63ffffffff168260060160049054906101000a900463ffffffff1663ffffffff1610159050919050565b600381015460ff1615611923576001810154600282015461082d916001600160a01b031690611b36565b80546001820154600283015461082d926001600160a01b03908116921690611c18565b600080611951611d9e565b91509150816040518060400160405280601381526020017211549493d497d45551555157d254d7d1955313606a1b815250906119a05760405162461bcd60e51b8152600401610524919061200d565b508260018260ff16600a81106119c657634e487b7160e01b600052603260045260246000fd5b82516007919091029190910190815560208083015160018301805460408087015163ffffffff94851667ffffffffffffffff199384161764010000000091861682021790935560608088015180516002890180546001600160a01b03199081166001600160a01b03938416179091559782015160038a018054909916911617909655908501516004870155939093015160058501805460ff191691151591909117905560808501516006909401805460a087015160c088015160e0890151610100909901519786169290961691909117908416909202919091176cffffffffff00000000000000001916600160401b939092169290920260ff60601b191617600160601b931515939093029290921760ff60681b1916600160681b91151591909102179055505050565b6000611b0160026305f5e100612088565b611b0c906001612060565b63ffffffff168260060160089054906101000a900463ffffffff1663ffffffff1610159050919050565b6040805180820190915260128152714552524f525f5a45524f5f4144445245535360701b60208201526001600160a01b038316611b865760405162461bcd60e51b8152600401610524919061200d565b50804710156040518060600160405280602381526020016121366023913990611bc25760405162461bcd60e51b8152600401610524919061200d565b506040516001600160a01b038316908290600081818185875af1925050503d8060008114611c0c576040519150601f19603f3d011682016040523d82523d6000602084013e611c11565b606091505b5050505050565b6040805180820190915260128152714552524f525f5a45524f5f4144445245535360701b60208201526001600160a01b038316611c685760405162461bcd60e51b8152600401610524919061200d565b506040516370a0823160e01b815230600482015281906001600160a01b038516906370a082319060240160206040518083038186803b158015611caa57600080fd5b505afa158015611cbe573d6000803e3d6000fd5b505050506040513d601f19601f82011682018060405250810190611ce29190611eff565b10156040518060600160405280602381526020016121366023913990611d1b5760405162461bcd60e51b8152600401610524919061200d565b5060405163a9059cbb60e01b81526001600160a01b0383811660048301526024820183905284169063a9059cbb90604401602060405180830381600087803b158015611d6657600080fd5b505af1158015611d7a573d6000803e3d6000fd5b505050506040513d601f19601f8201168201806040525081019061086f9190611e7a565b60008060005b600a60ff82161015611e0057611de060018260ff16600a8110611dd757634e487b7160e01b600052603260045260246000fd5b60070201611e0b565b611dee576001939092509050565b80611df8816120dc565b915050611da4565b506000928392509050565b6001810154600090640100000000900463ffffffff1615801590611e355750611e3382611af0565b155b80156118ad57505060060154600160601b900460ff161590565b60008060408385031215611e61578182fd5b8235611e6c81612112565b946020939093013593505050565b600060208284031215611e8b578081fd5b8151611e9681612127565b9392505050565b600080600060608486031215611eb1578081fd5b8335611ebc81612112565b92506020840135611ecc81612112565b91506040840135611edc81612112565b809150509250925092565b600060208284031215611ef8578081fd5b5035919050565b600060208284031215611f10578081fd5b5051919050565b60008060008060808587031215611f2c578081fd5b843593506020850135611f3e81612112565b92506040850135611f4e81612112565b9396929550929360600135925050565b600080600060608486031215611f72578283fd5b833592506020840135611f8481612112565b929592945050506040919091013590565b60008060408385031215611fa7578182fd5b823591506020830135611fb981612127565b809150509250929050565b600060208284031215611fd5578081fd5b815160ff81168114611e96578182fd5b602081016003831061200757634e487b7160e01b600052602160045260246000fd5b91905290565b6000602080835283518082850152825b818110156120395785810183015185820160400152820161201d565b8181111561204a5783604083870101525b50601f01601f1916929092016040019392505050565b600063ffffffff80831681851680830382111561207f5761207f6120fc565b01949350505050565b600063ffffffff808416806120ab57634e487b7160e01b83526012600452602483fd5b92169190910492915050565b600063ffffffff838116908316818110156120d4576120d46120fc565b039392505050565b600060ff821660ff8114156120f3576120f36120fc565b60010192915050565b634e487b7160e01b600052601160045260246000fd5b6001600160a01b038116811461082d57600080fd5b801515811461082d57600080fdfe4552524f525f54524541535552595f494e53554646494349454e545f42414c414e43454552524f525f43414e4e4f545f455845435554455f52454a45435445445f50524f504f53414ca2646970667358221220e2c3a3f5dd4667d1987b97e11696765d854af8323b6a2c319385ec9488e75bc064736f6c63430008040033",
  "devdoc": {
    "kind": "dev",
    "methods": {
      "createProposal(uint256)": {
        "params": {
          "hash": "proposal hash"
        }
      },
      "initialize(address,address,address)": {
        "params": {
          "token": "address of MiniMeToken"
        }
      },
      "veto(uint256)": {
        "params": {
          "hash": "proposal hash"
        }
      },
      "vote(uint256,bool)": {
        "params": {
          "hash": "The hash of the proposal",
          "support": "Yea or nay"
        }
      },
      "withdrawETH(uint256,address,uint256)": {
        "params": {
          "amount": "ETH amount",
          "hash": "proposal hash",
          "to": "where to send ETH"
        }
      },
      "withdrawToken(uint256,address,address,uint256)": {
        "params": {
          "amount": "how much token to send",
          "hash": "proposal hash",
          "to": "where to send token",
          "token": "ERC20-token contract address"
        }
      }
    },
    "version": 1
  },
  "userdoc": {
    "kind": "user",
    "methods": {
      "createProposal(uint256)": {
        "notice": "Create a proposal without payment"
      },
      "execute(uint256)": {
        "notice": "Execute a proposal so it could be removed from the queue If the proposal's payment amount > 0 then a withdrawment from the treasury is made If there are not enough funds in the treasury then the transaction is reverted"
      },
      "find(uint256)": {
        "notice": "Find index of a proposal by hash that could be in any state: active, expired or finished"
      },
      "veto(uint256)": {
        "notice": "Veto the vote A user needs a Veto Token to run this method"
      },
      "vote(uint256,bool)": {
        "notice": "Cast a vote"
      },
      "withdrawETH(uint256,address,uint256)": {
        "notice": "Create a proposal to withdraw ETH"
      },
      "withdrawToken(uint256,address,address,uint256)": {
        "notice": "Create a proposal to withdraw a ERC20-token"
      }
    },
    "version": 1
  },
  "storageLayout": {
    "storage": [
      {
        "astId": 3070,
        "contract": "contracts/VotingDAOV2.sol:VotingDAOV2",
        "label": "accessControl",
        "offset": 0,
        "slot": "0",
        "type": "t_contract(AccessControl)713"
      },
      {
        "astId": 6,
        "contract": "contracts/VotingDAOV2.sol:VotingDAOV2",
        "label": "_initialized",
        "offset": 20,
        "slot": "0",
        "type": "t_uint8"
      },
      {
        "astId": 9,
        "contract": "contracts/VotingDAOV2.sol:VotingDAOV2",
        "label": "_initializing",
        "offset": 21,
        "slot": "0",
        "type": "t_bool"
      },
      {
        "astId": 3387,
        "contract": "contracts/VotingDAOV2.sol:VotingDAOV2",
        "label": "proposals",
        "offset": 0,
        "slot": "1",
        "type": "t_array(t_struct(Proposal)3202_storage)10_storage"
      },
      {
        "astId": 3730,
        "contract": "contracts/VotingDAOV2.sol:VotingDAOV2",
        "label": "votingToken",
        "offset": 0,
        "slot": "71",
        "type": "t_contract(IMiniMeToken)4460"
      },
      {
        "astId": 3733,
        "contract": "contracts/VotingDAOV2.sol:VotingDAOV2",
        "label": "vetoes",
        "offset": 0,
        "slot": "72",
        "type": "t_contract(VetoNFT)3683"
      },
      {
        "astId": 3740,
        "contract": "contracts/VotingDAOV2.sol:VotingDAOV2",
        "label": "voted",
        "offset": 0,
        "slot": "73",
        "type": "t_mapping(t_address,t_mapping(t_uint256,t_enum(VoteType)3727))"
      },
      {
        "astId": 3744,
        "contract": "contracts/VotingDAOV2.sol:VotingDAOV2",
        "label": "proposalExisted",
        "offset": 0,
        "slot": "74",
        "type": "t_mapping(t_uint256,t_bool)"
      }
    ],
    "types": {
      "t_address": {
        "encoding": "inplace",
        "label": "address",
        "numberOfBytes": "20"
      },
      "t_array(t_struct(Proposal)3202_storage)10_storage": {
        "base": "t_struct(Proposal)3202_storage",
        "encoding": "inplace",
        "label": "struct Proposal[10]",
        "numberOfBytes": "2240"
      },
      "t_bool": {
        "encoding": "inplace",
        "label": "bool",
        "numberOfBytes": "1"
      },
      "t_contract(AccessControl)713": {
        "encoding": "inplace",
        "label": "contract AccessControl",
        "numberOfBytes": "20"
      },
      "t_contract(IMiniMeToken)4460": {
        "encoding": "inplace",
        "label": "contract IMiniMeToken",
        "numberOfBytes": "20"
      },
      "t_contract(VetoNFT)3683": {
        "encoding": "inplace",
        "label": "contract VetoNFT",
        "numberOfBytes": "20"
      },
      "t_enum(VoteType)3727": {
        "encoding": "inplace",
        "label": "enum VotingDAOV2.VoteType",
        "numberOfBytes": "1"
      },
      "t_mapping(t_address,t_mapping(t_uint256,t_enum(VoteType)3727))": {
        "encoding": "mapping",
        "key": "t_address",
        "label": "mapping(address => mapping(uint256 => enum VotingDAOV2.VoteType))",
        "numberOfBytes": "32",
        "value": "t_mapping(t_uint256,t_enum(VoteType)3727)"
      },
      "t_mapping(t_uint256,t_bool)": {
        "encoding": "mapping",
        "key": "t_uint256",
        "label": "mapping(uint256 => bool)",
        "numberOfBytes": "32",
        "value": "t_bool"
      },
      "t_mapping(t_uint256,t_enum(VoteType)3727)": {
        "encoding": "mapping",
        "key": "t_uint256",
        "label": "mapping(uint256 => enum VotingDAOV2.VoteType)",
        "numberOfBytes": "32",
        "value": "t_enum(VoteType)3727"
      },
      "t_struct(Payment)3182_storage": {
        "encoding": "inplace",
        "label": "struct Payment",
        "members": [
          {
            "astId": 3175,
            "contract": "contracts/VotingDAOV2.sol:VotingDAOV2",
            "label": "token",
            "offset": 0,
            "slot": "0",
            "type": "t_address"
          },
          {
            "astId": 3177,
            "contract": "contracts/VotingDAOV2.sol:VotingDAOV2",
            "label": "destination",
            "offset": 0,
            "slot": "1",
            "type": "t_address"
          },
          {
            "astId": 3179,
            "contract": "contracts/VotingDAOV2.sol:VotingDAOV2",
            "label": "amount",
            "offset": 0,
            "slot": "2",
            "type": "t_uint256"
          },
          {
            "astId": 3181,
            "contract": "contracts/VotingDAOV2.sol:VotingDAOV2",
            "label": "sendETH",
            "offset": 0,
            "slot": "3",
            "type": "t_bool"
          }
        ],
        "numberOfBytes": "128"
      },
      "t_struct(Proposal)3202_storage": {
        "encoding": "inplace",
        "label": "struct Proposal",
        "members": [
          {
            "astId": 3184,
            "contract": "contracts/VotingDAOV2.sol:VotingDAOV2",
            "label": "hash",
            "offset": 0,
            "slot": "0",
            "type": "t_uint256"
          },
          {
            "astId": 3186,
            "contract": "contracts/VotingDAOV2.sol:VotingDAOV2",
            "label": "createdTimestamp",
            "offset": 0,
            "slot": "1",
            "type": "t_uint32"
          },
          {
            "astId": 3188,
            "contract": "contracts/VotingDAOV2.sol:VotingDAOV2",
            "label": "createdBlockNumber",
            "offset": 4,
            "slot": "1",
            "type": "t_uint32"
          },
          {
            "astId": 3191,
            "contract": "contracts/VotingDAOV2.sol:VotingDAOV2",
            "label": "payment",
            "offset": 0,
            "slot": "2",
            "type": "t_struct(Payment)3182_storage"
          },
          {
            "astId": 3193,
            "contract": "contracts/VotingDAOV2.sol:VotingDAOV2",
            "label": "updatedBlockNumber",
            "offset": 0,
            "slot": "6",
            "type": "t_uint32"
          },
          {
            "astId": 3195,
            "contract": "contracts/VotingDAOV2.sol:VotingDAOV2",
            "label": "yeas",
            "offset": 4,
            "slot": "6",
            "type": "t_uint32"
          },
          {
            "astId": 3197,
            "contract": "contracts/VotingDAOV2.sol:VotingDAOV2",
            "label": "nays",
            "offset": 8,
            "slot": "6",
            "type": "t_uint32"
          },
          {
            "astId": 3199,
            "contract": "contracts/VotingDAOV2.sol:VotingDAOV2",
            "label": "isExecuted",
            "offset": 12,
            "slot": "6",
            "type": "t_bool"
          },
          {
            "astId": 3201,
            "contract": "contracts/VotingDAOV2.sol:VotingDAOV2",
            "label": "vetoed",
            "offset": 13,
            "slot": "6",
            "type": "t_bool"
          }
        ],
        "numberOfBytes": "224"
      },
      "t_uint256": {
        "encoding": "inplace",
        "label": "uint256",
        "numberOfBytes": "32"
      },
      "t_uint32": {
        "encoding": "inplace",
        "label": "uint32",
        "numberOfBytes": "4"
      },
      "t_uint8": {
        "encoding": "inplace",
        "label": "uint8",
        "numberOfBytes": "1"
      }
    }
  }
}